:020000040800F2
:100000002015002001010008C3630008A51E000898
:10001000C1630008CD1B0008D16700080000000084
:100020000000000000000000000000001D65000846
:100030006F1D00080000000029640008E165000849
:100040001B0100081B0100081B0100081B01000820
:100050001B0100081B0100081B0100081B01000810
:100060001B0100081B0100081B0100081B01000800
:100070001B0100081B0100081B0100081B010008F0
:100080001B0100081B0100081B0100081B010008E0
:100090001B0100081B0100081B0100081B010008D0
:1000A0001B0100081B0100081B0100081B010008C0
:1000B0001B0100081B0100081B0100081B010008B0
:1000C0001B0100081B0100081B0100081B010008A0
:1000D0001B010008356600081B0100081B01000811
:1000E0001B0100081B0100081B010008DFF80CD0F1
:1000F00001F00CFC00480047A17100082015002009
:100100000648804706480047FEE7FEE7FEE7FEE7B1
:10011000FEE7FEE7FEE7FEE7FEE7FEE7E56500082F
:10012000ED0000082DE9F04791460D46044697087A
:100130004FF0000866D000BF54F8046B54F8040B6D
:10014000014601F019F882463146084601F014F8DC
:10015000514600F0B9FF2E1DB0F5000FB8BFC5F82D
:10016000008002DB07F0FAF8286054F8045B54F8CA
:10017000040B014601F000F882462946084600F0CB
:10018000FBFF514600F0A0FF351DB0F5000FB8BFD2
:10019000C6F8008002DB07F0E1F8306054F8046B29
:1001A00054F8040B014600F0E7FF8246314608464A
:1001B00000F0E2FF514600F087FF2E1DB0F5000F62
:1001C000B8BFC5F8008002DB07F0C8F8286054F813
:1001D000045B54F8040B014600F0CEFF824629462A
:1001E000084600F0C9FF514600F06EFF351DB0F51E
:1001F000000FB8BFC6F8008002DB07F0AFF8306030
:100200007F1E99D119F0030608BFBDE8F08700BF33
:1002100054F8047B54F8040B014600F0ADFF81460E
:100220003946084600F0A8FF494600F04DFF2F462A
:100230002D1DB0F5000FB8BFC7F8008002DB07F036
:100240008DF83860761EE3D1BDE8F0872DE9FF4FC9
:10025000A5B00446269885080026374618951195BE
:1002600054F8360006EB0508029004EBC600079030
:100270004068109054F8380004EBC80208EB0509F8
:100280001D9221905068019054F8390004EBC90286
:100290001C920F9009EB050A50680C9054F83A0034
:1002A00004EBCA0117911F9048680D900F990298AE
:1002B00000F00AFF1B901F99219800F005FF159090
:1002C0000C99109800F000FF19900D99019800F01A
:1002D000FBFE169027984FEA470B50F83B0005901D
:1002E00027980F9900EBCB0040680B90029800F024
:1002F0003DFF1A901F99219800F038FF0E900C993D
:10030000109800F033FF03900D99019800F02EFF34
:100310000A9015991B9800F0D7FE44F836001699FC
:10032000199800F0D1FE0146079841600A991A9881
:1003300000F0CAFE10900E99039800F017FF0F907E
:1003400015991B9800F012FF0D901699199800F05E
:100350000DFF0C900A991A9800F008FF0A90039973
:100360000E9800F0B1FE0E90279850F837000890D4
:10037000279800EBC7004068099027990BEB07000E
:1003800051F830B001EBC000089940680690109811
:1003900000F0F2FE1A9008990F9800F0EDFE01901F
:1003A00005990D9800F0E8FE169005990C9800F05C
:1003B000E3FE039059460A9800F0DEFE1990594674
:1003C0000E9800F0D9FE029009990F9800F0D4FE23
:1003D00083460999109800F0CFFE1090DDE90B10CC
:1003E00000F0CAFE15900B990D9800F0C5FE0C9018
:1003F00006990E9800F0C0FE0D9006990A9800F03C
:10040000BBFE0A9059461A9800F05EFE1A901099A9
:10041000019800F0ABFE0190DDE9151000F054FEEC
:1004200083460C99039800F0A1FE03900D9919984A
:1004300000F04AFE19900A99029800F097FE44F8DD
:1004400038B01D9A039906F1010651601A9944F8D3
:1004500039101C9A01995160199944F83A1017996A
:100460004860289807441198401E11907FF4F8AE18
:1004700028984FF6FF7101EA800028901898239081
:10048000042840F2248117950020AD0812901190A5
:10049000681E1C90129B279A1298129952F83320CA
:1004A0000892279A400002EBC30201445268099265
:1004B000279A52F830200592279A02EBC000406834
:1004C0000B9052F83100079002EBC1002899406868
:1004D00006905818119E1290771954F83600029021
:1004E00004EBC60024904068109054F8370004EBE9
:1004F000C702CDE9202007EB05085068019054F8A9
:10050000380004EBC80B0F9008EB0509DBF804007A
:100510000C9054F8390004EBC90A1F90DAF8040073
:100520000D900F99029800F021FE1A901F992198C2
:1005300000F01CFE0E900C99109800F017FE03902E
:100540000D99019800F012FE0A900F99029800F0A0
:10055000BBFD1B901F99219800F0B6FD15900C99DA
:10056000109800F0B1FD19900D99019800F0ACFDC4
:1005700016900A991A9800F0A7FD10900E9903980A
:1005800000F0F4FD0F9015991B9800F0EFFD0D9011
:100590001699199800F0EAFD0C900A991A9800F043
:1005A000E5FD0A9003990E9800F08EFD0E901599C6
:1005B0001B9800F089FD44F836001699199800F050
:1005C00083FD0146249841600899109800F0D4FDFD
:1005D0001A9008990F9800F0CFFD019005990D9899
:1005E00000F0CAFD169005990C9800F0C5FD039027
:1005F00007990A9800F0C0FD199007990E9800F02D
:10060000BBFD029009990F9800F0B6FD0F90099973
:10061000109800F0B1FD1090DDE90B1000F0ACFD7A
:1006200015900B990D9800F0A7FD0C9006990E9867
:1006300000F0A2FD0D9006990A9800F09DFD0A9029
:100640000F991A9800F040FD1A901099019800F047
:100650008DFD0190DDE9151000F036FD16900C9926
:10066000039800F083FD03900D99199800F02CFD7C
:1006700019900A99029800F079FD169944F83710FC
:10068000209A039951601A9944F838100199CBF8CF
:100690000410199944F83910CAF804001798064450
:1006A00026988642FFF418AF11981C99401C1190AF
:1006B00088427FF6EFAE28984FF6FF7101EA80007E
:1006C000289023988008239004283FF6DCAE189DDC
:1006D000D4E905B0D4E90068D4E90279D4F810A0CF
:1006E0001F90E0690D905146304600F0EDFC1B90E4
:1006F0005146304600F03AFD1A905946404600F007
:10070000E3FC19905946404600F030FD039038460E
:100710001F9900F0D9FC804648460D9900F0D4FCA2
:10072000064638461F9900F021FD0E9048460D9967
:1007300000F01CFD0A9041461B9800F0C5FC059096
:100740003146199800F0C0FC834641461B9800F0E2
:100750000DFD07463146199800F008FD80460A99BC
:100760001A9800F0B1FC81460E99039800F0FEFC47
:1007700082460A991A9800F0F9FC064603990E98E9
:1007800000F0A2FC0599C4E90660E4E8021B84E8D5
:10079000800718346D1E9BD129B0BDE8F08F2DE97C
:1007A000FF4FA5B0044626988508002637461895C1
:1007B000CDF8485054F8360006EB0508059008EBD4
:1007C000050904EBC600099040681E9054F83900F2
:1007D00004EBC90216920B905068079054F8380049
:1007E00004EBC8021F921D9009EB050A50680490A3
:1007F00054F83A0004EBCA01179111904868089028
:100800000B99059800F060FC1B9011991D9800F061
:100810005BFC1A9007991E9800F056FC19900899F5
:10082000049800F051FC0E9027984FEA470B50F8BF
:100830003B000D90279800EBCB00406810900B997F
:10084000059800F093FC1C9011991D9800F08EFC07
:10085000029007991E9800F089FC0390089904986B
:1008600000F084FC0C90DDE91A1000F02DFC44F837
:1008700036000E99199800F027FC0146099841604E
:100880000C991C9800F072FC0590DDE9021000F054
:100890001BFC0890DDE91A1000F068FC07900E9927
:1008A000199800F063FC11900C991C9800F00CFC56
:1008B0000B90DDE9021000F059FC0C90279850F8DD
:1008C00037000A90279800EBC700406809902799E5
:1008D0000BEB070051F830B001EBC00040680F90FF
:1008E0000A99059800F048FC1A900A99089800F0B7
:1008F00043FC04900D99079800F03EFC19900D9967
:10090000119800F039FC039059460B9800F034FC24
:100910001B9059460C9800F02FFC0290DDE908016D
:1009200000F02AFC83460999059800F025FC0E90FA
:10093000DDE9101000F020FC05901099079800F0F8
:100940001BFC07900F990C9800F016FC0C900F9967
:100950000B9800F011FC0B9059461A9800F006FC19
:100960001A900E99049800F0AFFB0490059919981D
:1009700000F0FCFB83460799039800F0A5FB039069
:100980000C991B9800F0F2FB1B900B99029800F059
:100990009BFB44F838B01F9A039906F10106516099
:1009A0001A9944F83910169A049951601B9944F821
:1009B0003A1017994860289807441298401E1290E0
:1009C0007FF4F8AE28984FF6FF7101EA8000289076
:1009D00018982390042840F2248100201695AD0831
:1009E00013901290681E1790139B279A13981399CF
:1009F00052F833200A92279A400002EBC3020144C6
:100A000052680992279A52F830200D92279A129E26
:100A100002EBC0004068109052F83100009002EBE9
:100A2000C10040680F90289958181390771954F80E
:100A30003600059004EBC600249040681E9007EB3A
:100A4000050854F8370004EBC70B1D90DBF80400D1
:100A5000049054F8380004EBC8020B90209208EB85
:100A600005095068079054F8390004EBC90A119041
:100A7000DAF8040008900B99059800F077FB1C90B9
:100A800011991D9800F072FB029007991E9800F0D2
:100A90006DFB03900899049800F068FB0C900B998B
:100AA000059800F011FB1B9011991D9800F00CFBAC
:100AB0001A9007991E9800F007FB1990089904985E
:100AC00000F002FB0E900C991C9800F04FFB059073
:100AD000DDE9021000F0F8FA0890DDE91A1000F0E4
:100AE00045FB07900E99199800F040FB11900C9966
:100AF0001C9800F0E9FA0B90DDE9021000F036FBDB
:100B00000C90DDE91A1000F0DFFA44F836000E9977
:100B1000199800F0D9FA0146249841600A9905987D
:100B200000F02AFB1A900A99089800F025FB04901F
:100B30000D99079800F020FB19900D99119800F07D
:100B40001BFB039000990B9800F016FB1B9000997B
:100B50000C9800F011FB0290DDE9080100F00CFB9D
:100B600008900999059800F007FB0E90DDE9101038
:100B700000F002FB05901099079800F0FDFA07902D
:100B80000F990C9800F0F8FA0C900F990B9800F060
:100B9000F3FA0B9008991A9800F0E8FA1A900E9957
:100BA000049800F091FA04900599199800F0DEFA83
:100BB00019900799039800F087FA03900C991B98F5
:100BC00000F0D4FA1B900B99029800F07DFA199965
:100BD00044F837100399CBF804101A9944F83810E8
:100BE000209A049951601B9944F83910CAF80400FE
:100BF0001698064426988642FFF418AF1298401CB7
:100C00001290179988427FF6EFAE28984FF6FF7141
:100C100001EA8000289023988008239004283FF65A
:100C2000DCAE189DD4E905B0D4E90276D4E9008998
:100C3000D4F810A01190E06908905146404600F0A9
:100C400043FA1B905146404600F090FA1C905946DA
:100C5000484600F039FA19905946484600F086FA9D
:100C600003903846119900F02FFA814630460899D2
:100C700000F02AFA80463846119900F077FA0746C4
:100C80003046089900F072FA824649461B9800F0F7
:100C90001BFA83464146199800F016FA049049461B
:100CA0001B9800F063FA81464146199800F05EFAFD
:100CB000064651461C9800F059FA099039460398A7
:100CC00000F002FA019051461C9800F0FDF90690E0
:100CD0003946039800F04AFA03905846329900F0DA
:100CE0004BFA07463299049800F046FA8046484687
:100CF000329900F041FA81463046329900F03CFAD0
:100D000082463299099800F037FA83463299019861
:100D100000F032FA0B903299069800F02DFA064650
:100D20003299039800F028FAA4E8800F0B9944F850
:100D3000041B6D1EE4E802607FF474AF29B0BDE8C7
:100D4000F08F38B504460D4680782188A389626803
:100D500001280FD02846FFF779FAE078012818BF5C
:100D600038BDE2892188A36801B02846BDE830403B
:100D700000F0C1B8206900902846FFF710FDECE7AD
:100D800010B40180224C446082704FF0000CC3709C
:100D9000B1F5807F20D004DC10292ED0402923D04B
:100DA00005E0B1F5806F0FD0B1F5805F04D04FF052
:100DB000FF3C10BC6046704701218181C18115490B
:100DC00081604FF0665116E004218181C181124992
:100DD00081604FF06A510EE010218181C1810F497D
:100DE00081604FF06E5106E040218181C1810C4944
:100DF00081604FF072510161DBE74FF480718181B6
:100E0000C181084981604FF076510161D1E700004E
:100E1000E8930008E88B0008EE8B0008068C0008B9
:100E2000668C0008E68D00082DE9FF4F041D05685B
:100E300081B00027481E8B463E4600905FEA90082E
:100E400028D000BF54F8049B284654F804AB494608
:100E500000F0E8FA3CBF4D467E1C54F8049B514616
:100E6000284600F0DFFA3CBF5546BE1C54F804ABE0
:100E70004946284600F0D6FA3CBF4D46FE1C514676
:100E8000284600F0CFFA3CBF55463E1D3F1DB8F145
:100E90000108D7D1009810F0030718D03846B7F1F1
:100EA000004F1BD2002FC4BF4FF0000881460EDD5B
:100EB0002846216800F0B6FA03D20BEB080025683B
:100EC000C61B241D08F10108B9F10109F0D10398EE
:100ED00005600498066005B0BDE8F08F54F8048BF7
:100EE0002846414600F09EFA3CBF4546ABEB07065C
:100EF0007F1EF3D1EBE72DE9F0074D0801244FF0F9
:100F0000000C04EB51066146A5F102082CE0614596
:100F10002AD250F8314050F83C7040F8317040F817
:100F20003C4000EBC10400EBCC07D4F80490D7F8A8
:100F300004A0C4F804A0C7F804908F190CEB0604B1
:100F400050F8379050F834A040F837A040F834906B
:100F500000EBC70700EBC404D7F80490D4F804A052
:100F6000C7F804A0C4F8049000EBC104AC44A7681F
:100F700050F83C90C4F8089040F83C7000EBCC0C62
:100F8000E768DCF80490C4F80C90CCF80470891C75
:100F9000B3F800C089B203EB42034145B7D9BDE8BD
:100FA000F00770472DE9F0074D0801244FF0000CC1
:100FB00004EB51066146A5F102082BE0614529D2F8
:100FC00050F8314050F83C7040F8317040F83C40E7
:100FD00000EBC10900EBCC04D9F80470D4F804A0EC
:100FE000C9F804A067608C190CEB060750F8349020
:100FF00050F837A040F834A040F8379000EBC40414
:1010000000EBC707D4F80490D7F804A0C4F804A0F4
:10101000C7F8049000EBC104AC44A76850F83C90BA
:10102000C4F8089040F83C7000EBCC0CE768DCF8A2
:101030000490C4F80C90CCF80470B3F800C0891C7C
:1010400003EB42034145B9D9BDE8F00770472DE9EC
:10105000F00F01244F0804EB51084FF0000C7C08FE
:1010600004BFBDE8F00F7047014600EB880500267D
:1010700014E0BCEB460F11D950F82CA0D1F8009029
:10108000C1F800A040F82C900CEB0809D5F800A09E
:1010900050F829B0C5F800B040F829A0BC4451F878
:1010A000049F50F82CA041F804AB40F82C90B3F802
:1010B00000C003EB4203641E05F1080506F10106BA
:1010C000D7D1BDE8F00F7047F0B480EA0102D40F29
:1010D0004200B2EB410F02D20246084611464A00D6
:1010E00042D0C30DDDB2C1F3C752AD1A202D35DA9F
:1010F000C1F3160141F4000204B15242C5F12006C9
:1011000002FA06F12A411044B3EBD05F23D0C4B1F8
:10111000012DA0EBC35009DCF0BC4FF0004202EA05
:10112000C352DBB200F5000000F0F0B9400000F15E
:10113000807000EBC350A0F1807040EAD17049008C
:1011400009E0490841EAC071A0EBC35000F5000076
:10115000400800EBC350F0BC00F0CFB9614201225F
:1011600002EB4101001BF6E7F0BC704781F0004143
:10117000AAE780F00040A7E780EA010210B502F07C
:101180000043400022D04A001FD0010E01EB126143
:10119000C0F35600C2F3560240F4000042F40002CD
:1011A000A0FB022000047F39140400D0401C50EA48
:1011B000124001D44000491EC2B20C0604EBD0100C
:1011C000401C4008802A02D003E0002010BD20F01F
:1011D0000100002900DA0020184310BD30B480EA75
:1011E000010202F0004530F0004221F0004013D02F
:1011F00090B1C30DD40DC2F31601C0F31600E41A6A
:1012000041F4000140F400027D34914201D3641C9A
:1012100000E04900002C02DA30BC002070474FF497
:1012200000000023914201D3891A034340084FEA8A
:101230004101F7D151B1914202D14FF0004105E097
:1012400002D24FF0010101E06FF0010103EBC45045
:10125000284430BC00F051B92DE9FE4F81EA030467
:1012600004F0004421F0004100944FF0000B23F003
:10127000004350EA01045ED052EA03045BD0C3F39A
:101280000A54C1F30A552C44A4F2F3340194A0FB90
:101290000254C1F3130141F48011C3F3130343F467
:1012A000801301FB024400FB034E840A970A44EAC0
:1012B000815447EA8357A4FB076802958D0A05FB12
:1012C00007854FEA932C04FB0C542705029D4FEA37
:1012D000065847EA1637B5EB08056EEB070C870E84
:1012E000920E47EA811742EA8312A7FB0201B6EB8E
:1012F0000B0164EB00042B0D43EA0C335E1844EB46
:101300001C50DA465146E7FB0201C5F313044FEACD
:101310000B3343EA14534FEA0432019C43EA0603B9
:10132000A4F10C040294009CCDE900B400F05AF939
:1013300003B0BDE8F08F00200146F9E7C10F80EA55
:10134000E0700844CA079623002100F0DFB8962316
:101350000022114600F0DAB80EB540F23341029196
:101360000021CDE900110A460B4600F03BF903B01D
:1013700000BD00F0004220F00040C10DC0F3160097
:1013800040F400007F2901DA00207047962903DC31
:10139000C1F19601C84001E096398840002AF4D096
:1013A0004042704720F00040C10DC0F3160040F4E9
:1013B00000007F2901DA00207047962903DCC1F183
:1013C0009601C8407047963988407047C1F30A5269
:1013D00010B5C1F3130140F2FF3341F480119A427A
:1013E00001DA002010BD40F233439A42A2F23342A8
:1013F00003DC524200F071F810BD904010BD00F0C7
:10140000004230F000400AD0C10D01F56071C0F318
:10141000160042EA0151C2084007114370470020FC
:1014200001467047002801DBC0F10040002901DBC4
:10143000C1F1004181427047002801DBC0F100404A
:10144000002901DBC1F100418842704730B50B46ED
:10145000014600202022012409E021FA02F59D42E4
:1014600005D303FA02F5491B04FA02F52844151EB8
:10147000A2F10102F1DC30BD2DE9F05F054600204C
:1014800092469B4688460646814640241BE02846F5
:1014900041464746224600F020F853465A46C01AB5
:1014A000914110D311461846224600F041FA2D1AF8
:1014B00067EB01084F4622460120002100F038FA70
:1014C00017EB00094E41201EA4F10104DFDC484661
:1014D00031462A464346BDE8F09F202A04DB203AE5
:1014E00021FA02F00021704721FA02F3D040C2F144
:1014F000200291400843194670470029A8BF704751
:10150000401C490008BF20F00100704710B4B0FA39
:1015100080FC00FA0CF050EA010404BF10BC7047D4
:1015200049B1CCF1200421FA04F411FA0CF118BFEE
:10153000012121430843A3EB0C01CB1D4FEA0061BD
:101540004FEA102042BF002010BC704700EBC35090
:1015500010440029A4BF10BC7047401C490008BFBC
:1015600020F0010010BC7047F0B4002802DCF0BC91
:1015700000207047C0F3C751C0F3160040F40000CC
:10158000CA0701D14000491E3F2202EB610500223B
:1015900011464FF4000626FA01F31344D41884428E
:1015A00001D8001B1A464000491C1729F3DD5100E1
:1015B000814202D24FF0FF3100E0002102EBC55022
:1015C000F0BCFFF79ABF10B5141E73F1000408DADF
:1015D000401C41F1000192185B411A4301D120F0F7
:1015E000010010BD2DE9F04D92469B4611B1B1FAB4
:1015F00081F202E0B0FA80F22032904600F098F9D1
:1016000004460F4640EA0A0041EA0B0153465A4697
:10161000084313D0114653EA010019D0C8F1400223
:101620005046FFF75AFF05460E4650465946424679
:1016300000F07EF9084305D0012004E02046394639
:10164000BDE8F08D0020054346EAE0762C433743A1
:101650000A986305E40AA0EB08000022FD0A44EAA8
:1016600047540A3002D500200146E9E70105101968
:101670006941DDE9084500196941BDE8F04DA2E77F
:101680002DE9FE4F804681EA0300C00F0C46009012
:1016900021F0004123F00045B8EB0200A94105D23A
:1016A0004046214690461C460B46024623F0004029
:1016B000104347D0270DC7F30A00C3F30A51029025
:1016C000401A019040286BDAC3F3130040F4801BEA
:1016D0000098924620B10023D2EB030A63EB0B0B78
:1016E00001985946C0F14002504600F021F90646E3
:1016F0000D4650465946019A00F029F910EB0800B2
:101700006141002487EA115284EAE7731A4340D00A
:10171000009A62B3019A012A4FEA075215DC001BB6
:1017200061EB02014FF0004202EA0752CDE90042AC
:10173000001C41F5801132462B46FFF753FF03B0E2
:10174000BDE8F08F40462146F9E7001B61EB02013E
:10175000001C41F5801300185B412018A2F500170A
:1017600047EB030140EAD570B6196D4111E06D08F1
:101770004FEA360645EAC0754FEA0752001B61EB97
:101780000201001C41F5801149084FEA30000019A0
:10179000514132462B4603B0BDE8F04FFFF713BF6F
:1017A0000098012240000023D0EB020263EBE073BB
:1017B000009821464FEAE074B8EB000061EB0401A9
:1017C000E9E783F000435BE781F0004158E72DE94A
:1017D000F04D81EA030404F0004B21F0004514466B
:1017E0004FF0000A23F0004150EA050220D054EAED
:1017F00001021DD0C5F30A570246C5F31303C1F316
:101800001300C1F30A5640F4801543F48013A7EB8C
:101810000608101BD64608F2FD3873EB050002D30C
:1018200008F1010801E092185B41B8F1000F03DAFA
:1018300000200146BDE8F08D00204FF480110646DF
:1018400084460EE0171B73EB050705D3121B63EBF1
:10185000050306434CEA010C49084FEA3000921890
:101860005B4150EA0107EDD152EA030012D082EA4F
:10187000040083EA0501084305D0101BAB4106D2E2
:101880000122002306E000224FF0004302E06FF047
:10189000010253101AEB06004CEB085110EB0A0042
:1018A00041EB0B01BDE8F04DFFF78DBEC1F30A52CD
:1018B000C1F3130140F2FF3341F480119A4202DA7E
:1018C00000200146704740F233439A42A2F233426D
:1018D00002DC5242FFF701BE00F02AB830B5041E08
:1018E00071F1000404DB4FF00044404264EB01015D
:1018F000141E73F1000405DB1C464FF000435242F6
:1019000063EB0403994208BF904230BD064C074D7B
:1019100006E0E06840F0010394E8070098471034BF
:10192000AC42F6D3FEF7E6FBE81301080814010801
:10193000202A04DB203A00FA02F10020704791408F
:10194000C2F1200320FA03F3194390407047202A84
:1019500006DBCB17203A41FA02F043EAE07306E0D7
:1019600041FA02F3D040C2F12002914008431946E7
:1019700070470029816802D041F0010101E021F0A7
:101980000101816070470029816802D041F48071B3
:1019900001E021F480718160704700000D4910B5AD
:1019A000884202D1012144150AE00B49884202D144
:1019B0000121041504E0094988420AD10121CC0320
:1019C000204604F055FD2046BDE81040002104F0FB
:1019D0004FBD10BD0024014000280140003C0140E3
:1019E000014600208968490700D50120704701465B
:1019F00000208968090700D50120704770B592B0B2
:101A000001214FF4027004F027FD0121084604F083
:101A100017FD4FF4004004F009FD00248DF8434009
:101A20000125ADF8405010A92B4800F0A1F92B4E2C
:101A3000304600F0FDF82A4800902A4801A981E8C4
:101A4000310028020494CDE9054080000790202051
:101A500008900002CDE909046946304600F06AF9B1
:101A60000121304600F0D8F81D4E4C3E3046FFF7BD
:101A700095FF8DF830500B948DF831504FF4602065
:101A8000CDE90D048DF83C500BA9304600F02CF840
:101A9000062301220821304600F04AF80121304691
:101AA000FFF771FF01213046FFF763FF304600F07A
:101AB00079F83046FFF79BFF0028FAD1304600F056
:101AC00080F83046FFF78CFF0028FAD1012130461C
:101AD00000F06DF812B070BD000C0140080002402B
:101AE0004C2401402400002010B542680E4B0C79B4
:101AF0001A400B6842EA04221343436082680B4B8E
:101B00001A40D1E9024323434C7942EA4402134389
:101B10008360C26A097C22F47002491EC9B242EA9B
:101B20000151C16210BD0000FFFEF0FFFDF7F1FFA3
:101B300070B5072609290AD9C568A1F10A0404EB82
:101B40004404A640B543A3401D43C56007E00569B2
:101B500001EB4104A640B543A3401D4305611F238B
:101B6000072A09D2446B521E02EB820293409C4327
:101B700091400C43446370BD0D2A09D2046BD21FFF
:101B800002EB820293409C4391400C43046370BD7E
:101B9000C46A0D3A02EB820293409C4391400C438D
:101BA000C46270BD816841F00801816070470029FE
:101BB000816802D041F4A00101E021F4A00181601C
:101BC0007047816841F0040181607047FEE70000C2
:101BD000094910B5CA6802F47F42CA60074A13680F
:101BE000DBB21360CB68C4B22343CB60116800F44E
:101BF0007F400143116010BD001001400C0C0140FA
:101C0000C10002D502490860704702494860704728
:101C100004040240000002400029016802D041F0A3
:101C2000010102E04FF6FE721140016070470000B2
:101C300001684FF6FE7211400160002101604160B1
:101C40008160C1603149314A0839904203D1486806
:101C500040F00F0006E02D4A1432904204D148684B
:101C600040F0F00048607047284A2832904203D183
:101C7000486840F47060F5E7244A3C32904203D152
:101C8000486840F47040EDE7204A5032904203D15A
:101C9000486840F47020E5E71C4A6432904203D162
:101CA000486840F47000DDE7184A7832904203D16A
:101CB000486840F07060D5E7154A111F904203D183
:101CC000086840F00F0006E0114A1432904204D137
:101CD000086840F0F000086070470D4A28329042D2
:101CE00003D1086840F47060F5E7094A3C3290423D
:101CF00003D1086840F47040EDE7054A5032904245
:101D0000EAD1086840F47020E5E7000008000240CE
:101D10000804024002460020D10001D5034900E03A
:101D200003490968114200D00120704700040240B5
:101D30000000024030B5026847F6F0739A430C6A1F
:101D40008B682343D1E904452C4323438C69234307
:101D5000CC6923434C6A23438C6A234313430360B7
:101D6000CA6842600A6882604968C16030BD7047D5
:101D7000F0B5CC78002204F00F03E40601D58C788E
:101D800023430C784FF00F0C14F0FF0F4FF0010EAF
:101D90001BD005680E880EFA02F42640A64210D128
:101DA00096000CFA06F725EA070703FA06F5CE783F
:101DB0003D43282E02D0482E02D002E0446100E0CC
:101DC0000461521C082AE5D305600A88FF2A1CD941
:101DD0004468002202F108060EFA06F50E882E402D
:101DE000AE420ED196000CFA06F7BC4303FA06F792
:101DF000CE783C43282E00D14561CE78482E00D1C4
:101E00000561521C082AE5D34460F0BDF0B5144CBE
:101E1000002801DAE36900E06368450D2E0185B210
:101E2000C0F30157B540C0F30342032F05D0C602EB
:101E30000AD503269640B34307E023F07062636837
:101E400023F07063636002E0AB4343F0706201B162
:101E50002A43002801DAE261F0BD6260F0BD0000B3
:101E6000000001400161704710B50220FFF752FFEA
:101E70000028FAD00220FFF7C3FE0148008810BDF9
:101E80002400002070B5002506462C4604E0FFF72C
:101E9000EBFF641C0544E4B2B442F8D3B5FBF6F0A2
:101EA00080B270BDFEE700002DE9F0471D4D82466F
:101EB000002428886F884743A888A0F5D0410439BA
:101EC00002D1A87901280CD00021084603F0FEFFBA
:101ED00004F032FA144D4FF480796E154FF4806897
:101EE0001CE00020A8714FF02A08A5F80A802B26D4
:101EF000AE81014603F0EAFF0120A8716E81A5F8CA
:101F00000C80E5E7C5F810906E615046FFF760FE63
:101F1000C5F81480C5F810802E61641CBC42F1D352
:101F2000BDE8F08748100020001001402DE9F04F77
:101F30004A492A232B24898845F2105A4FF4305BF2
:101F40004FF4285E4FF448754FF0F00C49F24139D8
:101F50004FF4A07745F210364FF4F07280B13F484D
:101F60004FF00108494580F806800780A0F802C0BC
:101F700001D0B1423ED12C2505814381848157E0B7
:101F800036484FF00008494580F80680A0F800C0A8
:101F9000478006D0A1F5D04CBCF1040C01D0B14271
:101FA0000CD12C2505814381A1F5D0438481043BCC
:101FB00001D0B14244D10780428041E0514507D170
:101FC000A0F808B0A0F80AE04FF42C5181810EE08F
:101FD000A1F5C856633E06D022210181202141810E
:101FE000212181812CE02C21018144818381028087
:101FF000458025E0A1F5D04CBCF1040C09D0514539
:102000000BD1A0F808B0A0F80AE04FF42C5383815C
:1020100021E02C250581448109E0A1F5C85CBCF1D3
:10202000630C12D022230381212343812023838147
:10203000A1F5D043043B01D0B14201D102804780D9
:10204000BDE8F04F002003F0B7BD4FF02C0CA0F816
:1020500008C04381848105804280E9E74810002060
:102060002DE9F74FDFF824B2894682B00546BBF868
:1020700004104FEA19200090280A854C0190584618
:10208000661527154089A1F513424FF4807A413A2D
:1020900019D0A1F5A642D846103A14D0B2F5007274
:1020A00028D05B46A1F5C85C9A791B885B1B5B1E38
:1020B000BCF1630C4DD0A1F5D04CBCF1040C7DD02B
:1020C000012A7CD0C3E004F027F9C4F810A06661AF
:1020D0000198FFF77DFD676127612661C4F810A0B4
:1020E0006661E8B2FFF774FD676127612661BBF89E
:1020F0000C009FE004F010F9C4F810A0666101988C
:10210000FFF766FD676127612661B8F80A00401C89
:1021100080B204F001F9C4F810A06661E8B2FFF7DC
:1021200057FD676127612661B8F80C0004F0F4F8E8
:10213000C4F810A066610098FFF74AFD6761276147
:102140002661B8F80C00401C80B204F0E5F8504657
:102150004DE002B99DB204F0DFF8D046C4F810A0FB
:102160006661280A0190FFF733FD676127612661E8
:10217000C4F810806661E8B2FFF72AFD6761276145
:102180002661C4F8108066610198FFF721FD676140
:1021900027612661C4F810806661E8B2FFF718FD78
:1021A000676127612661BBF80C0004F0B5F8C4F83C
:1021B000108066610098FFF70BFD01E021E045E02B
:1021C000676127612661C4F81080666109F0FF002D
:1021D000FFF7FEFC676127612661C4F81080666125
:1021E0000098FFF7F5FC6761276126614046206192
:1021F000666109F0FF00FFF7EBFC6761276126616C
:102200002DE0012A00D19DB204F086F8C4F810A098
:102210006661280AFFF7DCFC676127612661C4F864
:1022200010A06661E8B2FFF7D3FC67612761266101
:10223000B8F80C0004F070F8C4F810A066610098BB
:10224000FFF7C6FC67612761266180E79DB22946DA
:1022500004F078F8B8F80C00494604F073F85546D5
:10226000C4F814A06661BBF80800FFF7B1FC676111
:1022700027612661256166610498FFF7A9FC676103
:102280002761266105B0BDE8F08F000048100020EE
:10229000001001402DE9FF4F3F4C81B09946A088C6
:1022A000A0F5D041043902D1A07901280AD00398C1
:1022B0003A4DC0F1F0001FFA80F84FF4807B6F15A3
:1022C000029E36E02388DDE90201591A019D2B2682
:1022D0005B1B0025A5712A256581A681491E5B1E11
:1022E0000E9F89B24A469BB20097FFF7D3FF0120A9
:1022F000A0716681A58105B0BDE8F08F31460398D5
:1023000003F0E4FD04F018F800244FF4806A0CE0B8
:10231000C5F810B06F610020FFF75AFCC5F814A093
:10232000C5F810A02F61641CA4B24445F0D3761CFC
:10233000B6B24E45E2D903990198029E081A401C94
:102340001FFA80FA0E98B84608384FF4806B009058
:102350001FE03146019803F0B9FD03F0EDFF00984E
:10236000002487B211E04FF480702861C5F8148012
:102370003846FFF72DFCC5F814B0C5F810B0C5F805
:102380001080083F641CBFB2A4B25445EBD3761C46
:10239000B6B24E45DDD9AEE748100020001001402E
:1023A0002DE9F84F0121192004F056F80121FE48CB
:1023B000FFF72CFD41F6FF70ADF8000010208DF8FE
:1023C0000300DFF8E89303208DF8020069464C46CD
:1023D0004846FFF7CDFC4FF47F4529462046FFF7DE
:1023E00041FD4FF4F850F24CADF80000694620462C
:1023F000FFF7BEFC29462046FFF734FD322004F0EB
:102400008FFE0121002003F09DFF322004F088FEA2
:10241000002003F07DFBE74C0146A080E6A004F01D
:10242000D9F945F208484146A4F80480E6A004F032
:10243000D1F9A088A0F5134141397DD0A0F5D04154
:1024400004397AD0A0F5A641103977D0B1F50071E2
:1024500001F00482A0F513414FF480774FF4E06A55
:1024600040F2022B40F23F144FF42745253902F089
:10247000728140F20776C91E02F03882083102F0FC
:10248000F1827D00113902F09383404542F064846B
:102490003946012003F056FF5146022003F052FF57
:1024A00041F23001032003F04DFF0021042003F02E
:1024B00049FFE91D082003F045FF0021092003F032
:1024C00041FF00210A2003F03DFF00210C2003F012
:1024D00039FF00210D2003F035FF00210F2003F00C
:1024E00031FF142004F01CFE41F2B061102003F013
:1024F00029FF0121112003F025FF0121172003F0FE
:1025000021FFE11F122003F01DFFA900132003F09B
:1025100019FF0921292003F015FF09212A2003F0C2
:1025200011FF0021A42003F00DFF0021502003F033
:1025300009FFEF21512002E049E071E118E203F0C8
:1025400001FF0021522003F0FDFE2146532003F03D
:10255000F9FE4FF41C51602003F0F4FE01216120CC
:1025600003F0F0FE00216A2003F0ECFE0021802041
:1025700003F0E8FE0021812003F0E4FE0021822028
:1025800003F0E0FE0021832003F0DCFE0021842024
:1025900003F0D8FE0021852003F0D4FE1321902003
:1025A00003F0D0FE0021922003F0CCFE0321932003
:1025B00003F0C8FE4FF48871952003F0C3FE40F28B
:1025C0007311072003F0BEFE322002F0EFBCCF20D3
:1025D00003F0A2FE002003F08FFEC12003F08CFE6A
:1025E000302003F089FEED2003F096FE642003F016
:1025F00083FE032003F080FE122003F07DFE812085
:1026000003F07AFEE82003F087FE852003F074FED5
:10261000102003F071FE7A2003F06EFECB2003F051
:102620007BFE392003F068FE2C2003F065FE0020BD
:1026300003F062FE342003F05FFE022003F05CFE34
:10264000F72003F069FE202003F056FEEA2003F095
:1026500063FE002003F050FE002003F04DFEC0207A
:1026600003F05AFE1B2003F047FEC12003F054FE86
:10267000012003F041FEC52003F04EFE302003F0A0
:102680003BFE302003F038FEC72003F045FEB720A4
:1026900003F032FE362003F03FFE482003F02CFE0C
:1026A0003A2003F039FE552003F026FEB12003F056
:1026B00033FE002003F020FE1A2003F01DFEB6209A
:1026C00003F02AFE0A2003F017FEA22003F014FEF6
:1026D000F22003F021FE002003F00EFE262003F07E
:1026E0001BFE012003F008FEE02003F015FE0F2082
:1026F00003F002FE2A2003F0FFFD282003F0FCFD7A
:10270000082003F0F9FD0E2003F0F6FD082003F089
:10271000F3FD542003F0F0FDA92003F0EDFD43206C
:1027200003F0EAFD0A2003F0E7FD0F2003F0E4FDCB
:10273000002003F0E1FD002003F0DEFD002003F0A7
:10274000DBFD002003F0D8FDE12003F0E5FD0020D3
:1027500003F0D2FD152003F0CFFD172003F0CCFDD0
:10276000072003F0C9FD112003F0C6FD062003F089
:10277000C3FD2B2003F0C0FD562003F0BDFD3C201F
:1027800003F0BAFD052003F0B7FD102003F0B4FDFF
:102790000F2003F0B1FD3F2003F0AEFD3F2003F01A
:1027A000ABFD0F2018E000000002300000100140D7
:1027B000000C01404810002046726973743A30786A
:1027C000253034780D0A0000204C43442049443A17
:1027D00025780D0A0000000003F08EFD2B2003F089
:1027E0009BFD002003F088FD002003F085FD012003
:1027F00003F082FD3F2003F07FFD2A2003F08CFDD3
:10280000002003F079FD002003F076FD002003F0A6
:1028100073FDEF2003F070FD112003F07DFDA1E0BA
:10282000112003F079FD142004F07AFCD02003F08D
:1028300073FD072003F060FD422003F05DFD1D20C5
:1028400003F05AFDD12003F067FD002003F054FD92
:102850001A2003F051FD092003F04EFDD22003F0B1
:102860005BFD012003F048FD222003F045FDC02060
:1028700003F052FD102003F03FFD3B2003F03CFD30
:10288000002003F039FD022003F036FD112003F093
:1028900033FDC52003F040FD032003F02DFDC820CB
:1028A00003F03AFD002003F027FD252003F024FD6E
:1028B000212003F021FD052003F01EFD002003F080
:1028C0001BFD0A2003F018FD652003F015FD2520EF
:1028D00003F012FD772003F00FFD502003F00CFDF4
:1028E0000F2003F009FD002003F006FDF82003F09F
:1028F00013FD012003F000FDFE2003F00DFD00207C
:1029000003F0FAFC022003F0F7FC202003F004FDA2
:10291000362003F001FD082003F0EEFC3A2003F01E
:10292000FBFC552003F0E8FC2B2003F0F5FC002015
:1029300003F0E2FC002003F0DFFC012003F0DCFCEC
:102940003F2003F0D9FC2A2003F0E6FC002003F02E
:10295000D3FC002003F0D0FC012003F0CDFCDF20ED
:1029600003F0CAFC782004F0DBFB292001F0EFBE65
:10297000ED2003F0D1FC012003F0BEFCFE2003F0AB
:10298000BBFCEE2003F0C8FCDE2003F0B5FC2120E8
:1029900003F0B2FCF12003F0BFFC012003F0ACFC1B
:1029A000DF2003F0B9FC102003F0A6FCC42003F0E4
:1029B000B3FC8F2003F0A0FCC62003F0ADFC002088
:1029C00003F09AFCE22003F097FCE22003F094FC71
:1029D000E22003F091FCBF2003F09EFCAA2003F04C
:1029E0008BFCB02003F098FC0D2003F085FC002048
:1029F00003F082FC0D2003F07FFC002003F07CFC40
:102A0000112003F079FC002003F076FC192003F07C
:102A100073FC002003F070FC212003F06DFC00200B
:102A200003F06AFC2D2003F067FC002003F064FC37
:102A30003D2003F061FC002003F05EFC5D2003F00C
:102A40005BFC002003F058FC5D2003F055FC0020E7
:102A500003F052FCB12003F05FFC802003F04CFC3B
:102A6000002003F049FC8B2003F046FC002003F01B
:102A700043FC962003F040FC002003F03DFCB22014
:102A800003F04AFC002003F037FC002003F034FC84
:102A9000022003F031FC002003F02EFC032003F0A1
:102AA0002BFC002003F028FCB32003F035FC0020B1
:102AB00003F022FC002003F01FFC002003F01CFCAC
:102AC000002003F019FC002003F016FC002003F0A6
:102AD00013FC002003F010FC002003F00DFC00208C
:102AE00003F00AFC002003F007FC002003F004FCC4
:102AF000002003F001FC002003F0FEFB002003F0A7
:102B0000FBFB002003F0F8FB002003F0F5FB0020A6
:102B100003F0F2FB002003F0EFFB002003F0ECFBDE
:102B2000002003F0E9FB002003F0E6FB002003F0A7
:102B3000E3FB002003F0E0FB002003F0DDFBB4200A
:102B400003F0EAFB8B2003F0D7FB002003F0D4FB5B
:102B5000962003F0D1FB002003F0CEFBA12003F070
:102B6000CBFB002003F0C8FBB52003F0D5FB02200F
:102B700003F0C2FB002003F0BFFB032003F0BCFB0B
:102B8000002003F0B9FB042003F0B6FB002003F0A3
:102B9000B3FBB62003F0C0FB002003F0ADFB002028
:102BA00003F0AAFBB72003F0B7FB002003F0A4FB5F
:102BB000002003F0A1FB3F2003F09EFB002003F068
:102BC0009BFB5E2003F098FB002003F095FB642044
:102BD00003F092FB002003F08FFB8C2003F08CFBB2
:102BE000002003F089FBAC2003F086FB002003F0FB
:102BF00083FBDC2003F080FB002003F07DFB7020D2
:102C000003F07AFB002003F077FB902003F074FBC5
:102C1000002003F071FBEB2003F06EFB002003F0BB
:102C20006BFBDC2003F068FB002003F065FBB820A1
:102C300003F072FB002003F05FFB002003F05CFB5D
:102C4000002003F059FB002003F056FB002003F0A6
:102C500053FB002003F050FB002003F04DFB00204D
:102C600003F04AFBBA2003F057FB242003F044FB97
:102C7000002003F041FB002003F03EFB002003F0A6
:102C80003BFBC12003F048FB202003F035FB002074
:102C900003F032FB542003F02FFB002003F02CFB49
:102CA000FF2003F029FB002003F026FBC22003F0E5
:102CB00033FB0A2003F020FB002003F01DFB04205F
:102CC00003F01AFB002003F017FBC32003F024FBE2
:102CD0003C2003F011FB002003F00EFB3A2003F030
:102CE0000BFB002003F008FB392003F005FB00205C
:102CF00003F002FB372003F0FFFA002003F0FCFA98
:102D00003C2003F0F9FA002003F0F6FA362003F035
:102D1000F3FA002003F0F0FA322003F0EDFA00207D
:102D200003F0EAFA2F2003F0E7FA002003F0E4FAB8
:102D30002C2003F0E1FA002003F0DEFA292003F052
:102D4000DBFA002003F0D8FA262003F0D5FA0020A1
:102D500003F0D2FA242003F0CFFA002003F0CCFADB
:102D6000242003F0C9FA002003F0C6FA232003F060
:102D7000C3FA002003F0C0FA3C2003F0BDFA0020A3
:102D800003F0BAFA362003F0B7FA002003F0B4FAE1
:102D9000322003F0B1FA002003F0AEFA2F2003F046
:102DA000ABFA002003F0A8FA2C2003F0A5FA0020CB
:102DB00003F0A2FA292003F09FFA002003F09CFA06
:102DC000262003F099FA002003F096FA242003F05D
:102DD00093FA002003F090FA242003F08DFA0020EB
:102DE00003F08AFA232003F087FA002003F084FA24
:102DF000C42003F091FA622003F07EFA002003F071
:102E00007BFA052003F078FA002003F075FA84209D
:102E100003F072FA002003F06FFAF02003F06CFA6E
:102E2000002003F069FA182003F066FA002003F08E
:102E300063FAA42003F060FA002003F05DFA182082
:102E400003F05AFA002003F057FA502003F054FA26
:102E5000002003F051FA0C2003F04EFA002003F09A
:102E60004BFA172003F048FA002003F045FA9520AA
:102E700003F042FA002003F03FFAF32003F03CFA9B
:102E8000002003F039FAE62003F036FA002003F0C0
:102E900033FAC52003F040FA322003F02DFA002067
:102EA00003F02AFA442003F027FA002003F024FA62
:102EB000652003F021FA002003F01EFA762003F0CB
:102EC0001BFA002003F018FA882003F015FA0020FE
:102ED00003F012FAC62003F01FFA202003F00CFAC8
:102EE000002003F009FA172003F006FA002003F08F
:102EF00003FA012003F000FA002003F0FDF9C720D7
:102F000003F00AFA002003F0F7F9002003F0F4F9C7
:102F1000002003F0F1F9002003F0EEF9C82003F0DF
:102F2000FBF9002003F0E8F9002003F0E5F90020A8
:102F300003F0E2F9002003F0DFF9C92003F0ECF917
:102F4000002003F0D9F9002003F0D6F9002003F0A7
:102F5000D3F9002003F0D0F9002003F0CDF90020D0
:102F600003F0CAF9002003F0C7F9002003F0C4F908
:102F7000002003F0C1F9002003F0BEF9002003F0A7
:102F8000BBF9002003F0B8F9002003F0B5F90020E8
:102F900003F0B2F9002003F0AFF9002003F0ACF920
:102FA000E02003F0B9F9162003F0A6F9002003F0A1
:102FB000A3F91C2003F0A0F9002003F09DF92120C3
:102FC00003F09AF9002003F097F9362003F094F902
:102FD000002003F091F9462003F08EF9002003F061
:102FE0008BF9522003F088F9002003F085F9642062
:102FF00003F082F9002003F07FF97A2003F07CF9D6
:10300000002003F079F98B2003F076F9002003F01B
:1030100073F9992003F070F9002003F06DF9A820EE
:1030200003F06AF9002003F067F9B92003F064F9AE
:10303000002003F061F9C42003F05EF9002003F0E2
:103040005BF9CA2003F058F9002003F055F9D220AB
:1030500003F052F9002003F04FF9D92003F04CF9A6
:10306000002003F049F9E02003F046F9002003F0C6
:1030700043F9F32003F040F9002003F03DF9E1208B
:1030800003F04AF9162003F037F9002003F034F971
:103090001C2003F031F9002003F02EF9222003F068
:1030A0002BF9002003F028F9362003F025F9002041
:1030B00003F022F9452003F01FF9002003F01CF96A
:1030C000522003F019F9002003F016F9642003F0F0
:1030D00013F9002003F010F97A2003F00DF9002015
:1030E00003F00AF98B2003F007F9002003F004F93C
:1030F000992003F001F9002003F0FEF8A82003F066
:10310000FBF8002003F0F8F8B92003F0F5F80020F0
:1031100003F0F2F8C42003F0EFF8002003F0ECF81D
:10312000CA2003F0E9F8002003F0E6F8D22003F00B
:10313000E3F8002003F0E0F8D82003F0DDF80020E9
:1031400003F0DAF8E02003F0D7F8002003F0D4F819
:10315000F32003F0D1F8002003F0CEF8E22003F0D2
:10316000DBF8052003F0C8F8002003F0C5F80B20B9
:1031700003F0C2F8002003F0BFF81B2003F0BCF8F6
:10318000002003F0B9F8342003F0B6F8002003F073
:10319000B3F8442003F0B0F8002003F0ADF84F205E
:1031A00003F0AAF8002003F0A7F8612003F0A4F8C8
:1031B000002003F0A1F8792003F09EF8002003F02E
:1031C0009BF8882003F098F8002003F095F89720EA
:1031D00003F092F8002003F08FF8A62003F08CF89B
:1031E000002003F089F8B72003F086F8002003F0F0
:1031F00083F8C22003F080F8002003F07DF8C72098
:1032000003F07AF8002003F077F8D12003F074F887
:10321000002003F071F8D62003F06EF8002003F0D0
:103220006BF8DD2003F068F8002003F065F8F32068
:1032300003F062F8002003F05FF8E32003F06CF87D
:10324000052003F059F8002003F056F80A2003F097
:1032500053F8002003F050F81C2003F04DF8002034
:1032600003F04AF8332003F047F8002003F044F855
:10327000442003F041F8002003F03EF8502003F012
:103280003BF8002003F038F8622003F035F8002006
:1032900003F032F8782003F02FF8002003F02CF828
:1032A000882003F029F8002003F026F8972003F087
:1032B00023F8002003F020F8A62003F01DF80020DA
:1032C00003F01AF8B72003F017F8002003F014F801
:1032D000C22003F011F8002003F00EF8C72003F01D
:1032E0000BF8002003F008F8D12003F005F80020C7
:1032F00003F002F8D52002F0FFFF002002F0FCFFEF
:10330000DD2002F0F9FF002002F0F6FFF32002F0CA
:10331000F3FF002002F0F0FFE42002F0FDFF0120A7
:1033200002F0EAFF002002F0E7FF012002F0E4FFD4
:10333000002002F0E1FF022002F0DEFF002002F098
:10334000DBFF2A2002F0D8FF002002F0D5FF3C204E
:1033500002F0D2FF002002F0CFFF4B2002F0CCFFA2
:10336000002002F0C9FF5D2002F0C6FF002002F03D
:10337000C3FF742002F0C0FF002002F0BDFF8420D4
:1033800002F0BAFF002002F0B7FF932002F0B4FF72
:10339000002002F0B1FFA22002F0AEFF002002F0F8
:1033A000ABFFB32002F0A8FF002002F0A5FFBE2073
:1033B00002F0A2FF002002F09FFFC42002F09CFF59
:1033C000002002F099FFCD2002F096FF002002F0CD
:1033D00093FFD32002F090FF002002F08DFFDD204C
:1033E00002F08AFF002002F087FFF32002F084FF42
:1033F000002002F081FFE52002F08EFF002002F0A5
:103400007BFF002002F078FF002002F075FF002013
:1034100002F072FF022002F06FFF002002F06CFF4A
:10342000292002F069FF002002F066FF3C2002F034
:1034300063FF002002F060FF4B2002F05DFF0020E0
:1034400002F05AFF5D2002F057FF002002F054FF07
:10345000742002F051FF002002F04EFF842002F0A1
:103460004BFF002002F048FF932002F045FF0020B0
:1034700002F042FFA22002F03FFF002002F03CFFDA
:10348000B32002F039FF002002F036FFBE2002F028
:1034900033FF002002F030FFC42002F02DFF002097
:1034A00002F02AFFCD2002F027FF002002F024FFC7
:1034B000D32002F021FF002002F01EFFDC2002F0EA
:1034C0001BFF002002F018FFF32002F015FF002080
:1034D00002F012FFE62002F01FFF112002F00CFFA5
:1034E000002002F009FF342002F006FF002002F065
:1034F00003FF562002F000FF002002F0FDFE7620C0
:1035000002F0FAFE002002F0F7FE772002F0F4FE4F
:10351000002002F0F1FE662002F0EEFE002002F034
:10352000EBFE882002F0E8FE002002F0E5FE992084
:1035300002F0E2FE002002F0DFFEBB2002F0DCFE23
:10354000002002F0D9FE992002F0D6FE002002F001
:10355000D3FE662002F0D0FE002002F0CDFE552002
:1035600002F0CAFE002002F0C7FE552002F0C4FEA1
:10357000002002F0C1FE452002F0BEFE002002F055
:10358000BBFE432002F0B8FE002002F0B5FE44204E
:1035900002F0B2FE002002F0AFFEE72002F0BCFE17
:1035A000322002F0A9FE002002F0A6FE552002F013
:1035B000A3FE002002F0A0FE762002F09DFE002077
:1035C00002F09AFE662002F097FE002002F094FEC0
:1035D000672002F091FE002002F08EFE672002F0CC
:1035E0008BFE002002F088FE872002F085FE00207E
:1035F00002F082FE992002F07FFE002002F07CFEA5
:10360000BB2002F079FE002002F076FE992002F045
:1036100073FE002002F070FE772002F06DFE0020A5
:1036200002F06AFE442002F067FE002002F064FE11
:10363000562002F061FE002002F05EFE232002F020
:103640005BFE002002F058FE332002F055FE002001
:1036500002F052FE452002F04FFE002002F04CFE28
:10366000E82002F059FE002002F046FE002002F0A1
:1036700043FE992002F040FE002002F03DFE87202C
:1036800002F03AFE002002F037FE882002F034FEFD
:10369000002002F031FE772002F02EFE002002F022
:1036A0002BFE662002F028FE002002F025FE882076
:1036B00002F022FE002002F01FFEAA2002F01CFEF3
:1036C000002002F019FEBB2002F016FE002002F0DE
:1036D00013FE992002F010FE002002F00DFE66207D
:1036E00002F00AFE002002F007FE552002F004FE60
:1036F000002002F001FE552002F0FEFD002002F045
:10370000FBFD442002F0F8FD002002F0F5FD44200E
:1037100002F0F2FD002002F0EFFD552002F0ECFD7A
:10372000002002F0E9FDE92002F0F6FDAA2002F0F7
:10373000E3FD002002F0E0FD002002F0DDFD0020AE
:1037400002F0DAFD002002F0E7FDAA2002F0D4FD2D
:10375000CF2002F0E1FD002002F0CEFD002002F0BB
:10376000CBFD002002F0C8FD002002F0C5FD0020C6
:1037700002F0C2FD002002F0BFFD002002F0BCFDFF
:10378000002002F0B9FD002002F0B6FD002002F09A
:10379000B3FD002002F0B0FD002002F0ADFD0020DE
:1037A00002F0AAFD002002F0A7FD002002F0A4FD17
:1037B000002002F0A1FD002002F09EFDF02002F0AA
:1037C000ABFD002002F098FD502002F095FD002096
:1037D00002F092FD002002F08FFD002002F08CFD2F
:1037E000F32002F099FD002002F086FDF92002F09E
:1037F00093FD062002F080FD102002F07DFD2920BF
:1038000002F07AFD002002F077FD3A2002F084FDFC
:10381000552002F071FD112002F07EFD642003F0BE
:103820007FFC292002F078FD352002F075FD002094
:1038300002F062FD512002F06FFDFF2002F05CFDFE
:10384000532002F069FD2C2002F056FD552002F0B5
:1038500063FD822002F050FD2C20FDE34FF4704404
:103860005521204602F06EFD651CAA21284602F073
:1038700069FDA61C5221304602F064FDE71C0821B8
:10388000384602F05FFD4FF204080121404602F085
:1038900059FD0D214FF4304002F054FD0D214BF243
:1038A000010002F04FFD0D214BF2020002F04AFD33
:1038B0004FF436493421484602F044FD34214BF29E
:1038C000016002F03FFD34214BF2026002F03AFD4C
:1038D0004FF4314A0D21504602F034FD4BF2011BEA
:1038E0000D21584602F02EFD0D214BF2021002F080
:1038F00029FD34214FF4374002F024FD34214BF2EE
:10390000017002F01FFD34214BF2027002F01AFD2B
:1039100000214FF4324002F015FD00214BF201204E
:1039200002F010FD00214BF2022002F00BFD2421D9
:103930004FF4384002F006FD24214BF6010002F05E
:1039400001FD24214BF6020002F0FCFC01214FF4A2
:103950003F4002F0F7FC0F214FF4334002F0F2FC3D
:103960000F214BF2013002F0EDFC0F214BF202303F
:1039700002F0E8FC34214FF4394002F0E3FC34213A
:103980004BF6011002F0DEFC34214BF6021002F07F
:10399000D9FC08214FF4354002F0D4FC08214BF249
:1039A000015002F0CFFC08214BF2025002F0CAFC99
:1039B00003214FF4424002F0C5FC24214FF43A4069
:1039C00002F0C0FC24214BF6012002F0BBFC2421B4
:1039D0004BF6022002F0B6FC00214FF43C4002F00E
:1039E000B1FC78214BF6014002F0ACFC00214BF613
:1039F000024002F0A7FC00214FF43D4002F0A2FC7F
:103A000078214BF6015002F09DFC00214BF602504C
:103A100002F098FC00214FF43E4002F093FC642138
:103A20004BF6016002F08EFC00214FF4514002F091
:103A300089FC33214DF2011002F084FC00214DF28B
:103A4000021002F07FFC34214DF2031002F07AFCE8
:103A500000214DF2041002F075FC3A214DF20510E0
:103A600002F070FC00214DF2061002F06BFC4A21BE
:103A70004DF2071002F066FC00214DF2081002F032
:103A800061FC5C214DF2091002F05CFC00214DF25A
:103A90000A1002F057FC81214DF20B1002F052FC8B
:103AA00000214DF20C1002F04DFCA6214DF20D103C
:103AB00002F048FC00214DF20E1002F043FCE5211B
:103AC0004DF20F1002F03EFC01214DF2101002F0F9
:103AD00039FC13214DF2111002F034FC01214DF29A
:103AE000121002F02FFC54214DF2131002F02AFCA8
:103AF00001214DF2141002F025FC82214DF2151027
:103B000002F020FC01214DF2161002F01BFCCA212C
:103B10004DF2171002F016FC02214DF2181002F0BF
:103B200011FC00214DF2191002F00CFC02214DF2A3
:103B30001A1002F007FC01214DF21B1002F002FCEA
:103B400002214DF21C1002F0FDFB34214DF21D103C
:103B500002F0F8FB02214DF21E1002F0F3FB672188
:103B60004DF21F1002F0EEFB02214DF2201002F088
:103B7000E9FB84214DF2211002F0E4FB02214DF219
:103B8000221002F0DFFBA4214DF2231002F0DAFB39
:103B900002214DF2241002F0D5FBB7214DF2251081
:103BA00002F0D0FB02214DF2261002F0CBFBCF2118
:103BB0004DF2271002F0C6FB02214DF2281002F050
:103BC000C1FBDE214DF2291002F0BCFB02214DF2B7
:103BD0002A1002F0B7FBF2214DF22B1002F0B2FBDB
:103BE00002214DF22C1002F0ADFBFE214DF22D1002
:103BF00002F0A8FB03214DF22E1002F0A3FB1021CE
:103C00004DF22F1002F09EFB03214DF2301002F016
:103C100099FB33214DF2311002F094FB03214DF258
:103C2000321002F08FFB6D214DF2331002F08AFB4F
:103C300000214FF4524002F085FB33214DF2012068
:103C400002F080FB00214DF2022002F07BFB3421C8
:103C50004DF2032002F076FB00214DF2042002F029
:103C600071FB3A214DF2052002F06CFB00214DF270
:103C7000062002F067FB4A214DF2072002F062FBAA
:103C800000214DF2082002F05DFB5C214DF209207D
:103C900002F058FB00214DF20A2002F053FB812173
:103CA0004DF20B2002F04EFB00214DF20C2002F0F1
:103CB00049FBA6214DF20D2002F044FB00214DF2FC
:103CC0000E2002F03FFBE5214DF20F2002F03AFBFF
:103CD00001214DF2102002F035FB13214DF211208D
:103CE00002F030FB01214DF2122002F02BFB542197
:103CF0004DF2132002F026FB01214DF2142002F0B8
:103D000021FB82214DF2152002F01CFB01214DF216
:103D1000162002F017FBCA214DF2172002F012FB09
:103D200002214DF2182002F00DFB00214DF2192066
:103D300002F008FB02214DF21A2002F003FB0121E0
:103D40004DF21B2002F0FEFA02214DF21C2002F07F
:103D5000F9FA34214DF21D2002F0F4FA02214DF25D
:103D60001E2002F0EFFA67214DF21F2002F0EAFA5E
:103D700002214DF2202002F0E5FA84214DF22120AB
:103D800002F0E0FA02214DF2222002F0DBFAA42137
:103D90004DF2232002F0D6FA02214DF2242002F047
:103DA000D1FAB7214DF2252002F0CCFA02214DF2D2
:103DB000262002F0C7FACF214DF2272002F0C2FAE6
:103DC00002214DF2282002F0BDFADE214DF2292019
:103DD00002F0B8FA02214DF22A2002F0B3FAF221E1
:103DE0004DF22B2002F0AEFA02214DF22C2002F00F
:103DF000A9FAFE214DF22D2002F0A4FA03214DF282
:103E00002E2002F09FFA10214DF22F2002F09AFA94
:103E100003214DF2302002F095FA33214DF231208A
:103E200002F090FA03214DF2322002F08BFA6D215C
:103E30004DF2332002F086FA00214FF4534002F095
:103E400081FA33214DF2013002F07CFA00214DF26B
:103E5000023002F077FA34214DF2033002F072FAA8
:103E600000214DF2043002F06DFA3A214DF2053096
:103E700002F068FA00214DF2063002F063FA4A219E
:103E80004DF2073002F05EFA00214DF2083002F0E8
:103E900059FA5C214DF2093002F054FA00214DF23A
:103EA0000A3002F04FFA81214DF20B3002F04AFA4B
:103EB00000214DF20C3002F045FAA6214DF20D30F2
:103EC00002F040FA00214DF20E3002F03BFAE521FB
:103ED0004DF20F3002F036FA01214DF2103002F0AF
:103EE00031FA13214DF2113002F02CFA01214DF27A
:103EF000123002F027FA54214DF2133002F022FA68
:103F000001214DF2143002F01DFA82214DF21530DC
:103F100002F018FA01214DF2163002F013FACA210C
:103F20004DF2173002F00EFA02214DF2183002F075
:103F300009FA00214DF2193002F004FA02214DF283
:103F40001A3002F0FFF901214DF21B3002F0FAF9AC
:103F500002214DF21C3002F0F5F934214DF21D30F2
:103F600002F0F0F902214DF21E3002F0EBF9672168
:103F70004DF21F3002F0E6F902214DF2203002F03E
:103F8000E1F984214DF2213002F0DCF902214DF2F9
:103F9000223002F0D7F9A4214DF2233002F0D2F9F9
:103FA00002214DF2243002F0CDF9B7214DF2253037
:103FB00002F0C8F902214DF2263002F0C3F9CF21F8
:103FC0004DF2273002F0BEF902214DF2283002F006
:103FD000B9F9DE214DF2293002F0B4F902214DF297
:103FE0002A3002F0AFF9F2214DF22B3002F0AAF99B
:103FF00002214DF22C3002F0A5F9FE214DF22D30B8
:1040000002F0A0F903214DF22E3002F09BF91021AD
:104010004DF22F3002F096F903214DF2303002F0CC
:1040200091F933214DF2313002F08CF903214DF238
:10403000323002F087F96D214DF2333002F082F90F
:1040400000214FF4544002F07DF933214DF201403C
:1040500002F078F9002100E079E34DF2024002F02D
:1040600071F934214DF2034002F06CF900214DF258
:10407000044002F067F93A214DF2054002F062F97E
:1040800000214DF2064002F05DF94A214DF2074051
:1040900002F058F900214DF2084002F053F95C217A
:1040A0004DF2094002F04EF900214DF20A4002F0B3
:1040B00049F981214DF20B4002F044F900214DF203
:1040C0000C4002F03FF9A6214DF20D4002F03AF902
:1040D00000214DF20E4002F035F9E5214DF20F407E
:1040E00002F030F901214DF2104002F02BF91321BA
:1040F0004DF2114002F026F901214DF2124002F07A
:1041000021F954214DF2134002F01CF901214DF226
:10411000144002F017F982214DF2154002F012F915
:1041200001214DF2164002F00DF9CA214DF217405F
:1041300002F008F902214DF2184002F003F90021C3
:104140004DF2194002F0FEF802214DF21A4002F041
:10415000F9F801214DF21B4002F0F4F802214DF272
:104160001C4002F0EFF834214DF21D4002F0EAF855
:1041700002214DF21E4002F0E5F867214DF21F408A
:1041800002F0E0F802214DF2204002F0DBF8842139
:104190004DF2214002F0D6F802214DF2224002F009
:1041A000D1F8A4214DF2234002F0CCF802214DF2C7
:1041B000244002F0C7F8B7214DF2254002F0C2F8C2
:1041C00002214DF2264002F0BDF8CF214DF22740EA
:1041D00002F0B8F802214DF2284002F0B3F8DE21D7
:1041E0004DF2294002F0AEF802214DF22A4002F0D1
:1041F000A9F8F2214DF22B4002F0A4F802214DF271
:104200002C4002F09FF8FE214DF22D4002F09AF86A
:1042100003214DF22E4002F095F810214DF22F406F
:1042200002F090F803214DF2304002F08BF8332178
:104230004DF2314002F086F803214DF2324002F097
:1042400081F86D214DF2334002F07CF800214FF4EB
:10425000554002F077F833214DF2015002F072F828
:1042600000214DF2025002F06DF834214DF203505E
:1042700002F068F800214DF2045002F063F83A2190
:104280004DF2055002F05EF800214DF2065002F0AA
:1042900059F84A214DF2075002F054F800214DF22E
:1042A000085002F04FF85C214DF2095002F04AF834
:1042B00000214DF20A5002F045F881214DF20B50D9
:1042C00002F040F800214DF20C5002F03BF8A6211C
:1042D0004DF20D5002F036F800214DF20E5002F072
:1042E00031F8E5214DF20F5002F02CF801214DF28A
:1042F000105002F027F813214DF2115002F022F86D
:1043000001214DF2125002F01DF854214DF21350CC
:1043100002F018F801214DF2145002F013F8822136
:104320004DF2155002F00EF801214DF2165002F038
:1043300009F8CA214DF2175002F004F802214DF29B
:10434000185001F0FFFF00214DF2195001F0FAFF63
:1043500002214DF21A5001F0F5FF01214DF21B50E0
:1043600001F0F0FF02214DF21C5001F0EBFF34216F
:104370004DF21D5001F0E6FF02214DF21E5001F0FA
:10438000E1FF67214DF21F5001F0DCFF02214DF2E9
:10439000205001F0D7FF84214DF2215001F0D2FFCF
:1043A00002214DF2225001F0CDFFA4214DF2235005
:1043B00001F0C8FF02214DF2245001F0C3FFB721E4
:1043C0004DF2255001F0BEFF02214DF2265001F0C2
:1043D000B9FFCF214DF2275001F0B4FF02214DF279
:1043E000285001F0AFFFDE214DF2295001F0AAFF65
:1043F00002214DF22A5001F0A5FFF2214DF22B507F
:1044000001F0A0FF02214DF22C5001F09BFFFE2194
:104410004DF22D5001F096FF03214DF22E5001F088
:1044200091FF10214DF22F5001F08CFF03214DF22E
:10443000305001F087FF33214DF2315001F082FFFF
:1044400003214DF2325001F07DFF6D214DF23350CA
:1044500001F078FF00214FF4564001F073FF332143
:104460004DF2016001F06EFF00214DF2026001F09B
:1044700069FF34214DF2036001F064FF00214DF229
:10448000046001F05FFF3A214DF2056001F05AFF30
:1044900000214DF2066001F055FF4A214DF2076000
:1044A00001F050FF00214DF2086001F04BFF5C214C
:1044B0004DF2096001F046FF00214DF20A6001F063
:1044C00041FF81214DF20B6001F03CFF00214DF2D4
:1044D0000C6001F037FFA6214DF20D6001F032FFB4
:1044E00000214DF20E6001F02DFFE5214DF20F602D
:1044F00001F028FF01214DF2106001F023FF13218C
:104500004DF2116001F01EFF01214DF2126001F029
:1045100019FF54214DF2136001F014FF01214DF2F7
:10452000146001F00FFF82214DF2156001F00AFFC7
:1045300001214DF2166001F005FFCA214DF217600E
:1045400001F000FF02214DF2186001F0FBFE002196
:104550004DF2196001F0F6FE02214DF21A6001F0F1
:10456000F1FE01214DF21B6001F0ECFE02214DF243
:104570001C6001F0E7FE34214DF21D6001F0E2FE07
:1045800002214DF21E6001F0DDFE67214DF21F6039
:1045900001F0D8FE02214DF2206001F0D3FE84210B
:1045A0004DF2216001F0CEFE02214DF2226001F0B9
:1045B000C9FEA4214DF2236001F0C4FE02214DF298
:1045C000246001F0BFFEB7214DF2256001F0BAFE74
:1045D00002214DF2266001F0B5FECF214DF2276099
:1045E00001F0B0FE02214DF2286001F0ABFEDE21A9
:1045F0004DF2296001F0A6FE02214DF22A6001F081
:10460000A1FEF2214DF22B6001F09CFE02214DF241
:104610002C6001F097FEFE214DF22D6001F092FE1C
:1046200003214DF22E6001F08DFE10214DF22F601E
:1046300001F088FE03214DF2306001F083FE33214A
:104640004DF2316001F07EFE03214DF2326001F047
:1046500079FE6D214DF2336001F074FE5521204644
:1046600001F070FEAA21284601F06CFE522130466E
:1046700001F068FE0821384601F064FE0021404642
:1046800001F060FECC21504601F05CFE002158464E
:1046900001F058FE0521484601F054FE70214FF408
:1046A000374001F04FFE70214BF2017001F04AFEDD
:1046B00001214FF4384001F045FE03214BF6010083
:1046C00001F040FE03214BF6020001F03BFE032106
:1046D0004BF6030001F036FE02214FF43C4001F09E
:1046E00031FE00214BF6014001F02CFE00214BF67B
:1046F000024001F027FED0214FF4494001F022FE94
:1047000002214CF6011001F01DFE50214CF6021062
:1047100001F018FE50214CF6031001F013FE502159
:104720004CF6041001F00EFE00214FF4545001F03D
:1047300009FE55214FF4685001F004FE4FF48850F3
:1047400001F0EAFD782002F005FD4FF4245001F05D
:10475000E3FD01F091B947F6F001E52001F0F2FD2B
:104760003946012001F0EEFD5146022001F0EAFD3C
:1047700041F23001032001F0E5FD0021042001F0A9
:10478000E1FD5946082001F0DDFD0021092001F07E
:10479000D9FD00210A2001F0D5FD00210C2001F0F7
:1047A000D1FD00210D2001F0CDFD00210F2001F0F1
:1047B000C9FD0021102001F0C5FD0721112001F0E5
:1047C000C1FD0021122001F0BDFD0021132001F0E8
:1047D000B9FD0021072001F0B5FD41F290611020E4
:1047E00001F0B0FD40F22721112001F0ABFD9D2129
:1047F000122001F0A7FD4FF4C851132001F0A2FDD3
:104800002521292001F09EFD0D212B2001F09AFD8C
:104810000721302001F096FD40F20331312001F0F4
:1048200091FD0321322001F08DFD40F2062135205B
:1048300001F088FD0821362001F084FD40F2064198
:10484000372001F07FFD4FF44171382001F07AFDEF
:104850000721392001F076FD40F202613C2001F091
:1048600071FD08213D2001F06DFD0021502001F077
:1048700069FDEF21512001F065FD0021522001F07A
:1048800061FD2146532001F05DFD2946602001F0C5
:1048900059FD0121612001F055FD00216A2001F040
:1048A00051FD0021802001F04DFD0021812001F00B
:1048B00049FD0021822001F045FD0021832001F007
:1048C00041FD0021842001F03DFD0021852001F003
:1048D00039FD1021902001F035FD4FF4C061922088
:1048E00001F030FD40F233110720FDE341F28F016A
:1048F000EC2001F027FD41F23421EF2001F022FDF0
:104900003946012001F01EFD5146022001F01AFD3A
:1049100041F23001032001F015FD0021042001F0D7
:1049200011FD5946082001F00DFD0021092001F07C
:1049300009FD00210A2001F005FD01210C2001F0F4
:1049400001FD00210D2001F0FDFC00210F2001F0F0
:10495000F9FC0021102001F0F5FC0721112001F0E5
:10496000F1FC0021122001F0EDFC0021132001F0E8
:10497000E9FC0121072001F0E5FC322002F0D0FB28
:1049800041F29041102001F0DDFC40F2272111207E
:1049900001F0D8FC322002F0C3FB8A21122001F082
:1049A000D1FC322002F0BCFB4FF4D051132001F0B7
:1049B000C9FC0621292001F0C5FC0D212B2001F0A6
:1049C000C1FC322002F0ACFB0021202001F0BAFC37
:1049D0000021212001F0B6FC322002F0A1FB0021D1
:1049E000302001F0AFFC40F20461312001F0AAFC5C
:1049F00040F20531322001F0A5FC0021352001F004
:104A0000A1FC40F60941362001F09CFC4FF40171F5
:104A1000372001F097FC40F20131382001F092FC80
:104A20003146392001F08EFC00213C2001F08AFC47
:104A300040F60A213D2001F085FC322002F070FB97
:104A40000021502001F07EFCEF21512001F07AFC82
:104A50000021522001F076FC2146532001F072FC27
:104A600029464EE10021084601F06CFC3946012040
:104A700001F068FC5146022001F064FC41F2300173
:104A8000032001F05FFC0021042001F05BFC59468B
:104A9000082001F057FC0021092001F053FC0021FF
:104AA0000A2001F04FFC01210C2001F04BFC0021F9
:104AB0000D2001F047FC00210F2001F043FC3220C3
:104AC00002F02EFB40F20111072001F03BFC3220E6
:104AD00002F026FB4FF48651102001F033FC072131
:104AE000112001F02FFC4FF488752946122001F0A7
:104AF00029FC4FF43061132001F024FC002129200F
:104B000001F020FC44F210012B2001F01BFC0021DD
:104B1000502001F017FCEF21512001F013FC00217F
:104B2000522001F00FFC2146532001F00BFC4FF402
:104B30001C51602001F006FC0121612001F002FC03
:104B400000216A2001F0FEFB0021802001F0FAFB29
:104B50000021812001F0F6FB0021822001F0F2FB10
:104B60000021832001F0EEFB0021842001F0EAFB0C
:104B70000021852001F0E6FB1021902001F0E2FBEE
:104B80000021922001F0DEFB0121932001F0DAFBED
:104B90002946952001F0D6FB0021972001F0D2FB99
:104BA0000021982001F0CEFB40F273110720FDE2B6
:104BB00041F21401E72001F0C5FB3946012001F064
:104BC000C1FB2946022001F0BDFB41F23801032060
:104BD00001F0B8FB5946082001F0B4FB0021092080
:104BE00001F0B0FB00210A2001F0ACFB00210C20F9
:104BF00001F0A8FB00210D2001F0A4FB00210F20F3
:104C000001F0A0FB0021102001F09CFB07211120E6
:104C100001F098FB0021122001F094FB00211320E9
:104C200001F090FBC82002F07BFA41F29061102065
:104C300001F088FB40F22721112001F083FB322094
:104C400002F06EFA0C21122001F07CFB322002F0FF
:104C500067FA4FF40061132001F074FB1121292041
:104C600001F070FB0B212B2001F06CFB322002F0D5
:104C700057FA0021202001F065FB2146212001F098
:104C800061FB0021302001F05DFB4FF48375294664
:104C9000312001F057FB0021322001F053FB4FF48B
:104CA0000171352001F04EFB41F20A61362001F01E
:104CB00049FB3146372001F045FB2946382001F0F9
:104CC00041FB3146392001F03DFB40F202413C20DE
:104CD00001F038FB40F60F413D2001F033FB00218D
:104CE000502001F02FFBEF21512001F02BFB002180
:104CF000522001F027FB2146532001F023FB4FF403
:104D00001C51602001F01EFB0121612001F01AFB03
:104D100000216A2001F016FB0021802001F012FB27
:104D20000021812001F00EFB0021822001F00AFB0E
:104D30000021832001F006FB0021842001F002FB0A
:104D40000021852001F0FEFA1021902001F0FAFAEE
:104D50004FF4C0619220FDE3A0F5A8514FF44078D4
:104D6000053914D0B1F520417ED0B1F580517CD009
:104D7000A0F50941893979D0A0F58A41313976D039
:104D8000091F75D0A0F5C851633972D0E1E4002144
:104D9000072001F0D7FA322002F0C2F94FF48E71E9
:104DA000122001F0CFFA0121A42001F0CBFA0F214B
:104DB000082001F0C7FA08210A2001F0C3FA0821EF
:104DC0000D2001F0BFFA3146302001F0BBFA072177
:104DD000312001F0B7FA40F20361322001F0B2FA5B
:104DE00055465146332001F0ADFA5946342001F0C2
:104DF000A9FA0221352001F0A5FA41F60F713620FB
:104E000001F0A0FA3146372001F09CFA0021382049
:104E100001F098FA0021392001F094FA31463A2045
:104E200001F090FA00213B2001F08CFA07213C2090
:104E300001F088FA00213D2001F084FA322002F0CE
:104E40006FF90121072001F07DFA0121172001F0FF
:104E500079FA322002F064F94FF4BD51102001F0CC
:104E600071FA40F2172105E0A3E0A0E166E218E341
:104E7000CEE3FDE3112001F065FA4FF48F711220AB
:104E800001F060FA4FF47061132001F05BFA002129
:104E90002A2001F057FA0A21292001F053FA4FF491
:104EA0009F71122001F04EFA0021502001F04AFAC1
:104EB000EF21512001F046FA0021522001F042FA80
:104EC0002146532001F03EFA4FF41C51602001F0BE
:104ED00039FA0121612001F035FA00216A2001F040
:104EE00031FA0021802001F02DFA0021812001F00B
:104EF00029FA0021822001F025FA0021832001F007
:104F000021FA0021842001F01DFA0021852001F002
:104F100019FA1321902001F015FA4146922001F070
:104F200011FA0521932001F00DFA0021952001F0DE
:104F300009FA0021972001F005FA0021982001F0DC
:104F400001FA3946012001F0FDF92946022001F05D
:104F5000F9F941F23801032001F0F4F900210420AD
:104F600001F0F0F900210C2001F0ECF900210F20F4
:104F700001F0E8F90021202001F0E4F900212120CE
:104F800001F0E0F92121072001F0DCF9142002F002
:104F9000C7F86121072001F0D5F9142002F0C0F80C
:104FA00040F27311072001F0CDF9142002F0B8F897
:104FB000ECE60021084601F0C5F90021084601F0A1
:104FC000C1F90021084601F0BDF90021084601F0B1
:104FD000B9F90121A42001F0B5F9142002F0A0F8DC
:104FE0004FF41C552946602001F0ACF95E46594645
:104FF000082001F0A7F94FF40571302001F0A2F963
:1050000043F21571312001F09DF940F20461322024
:1050100001F098F940F61661332001F093F942F25D
:105020001121342001F08EF94FF4A851352001F000
:1050300089F948F20751362001F084F941F207411D
:10504000372001F07FF941F20341382001F07AF96D
:105050002021392001F076F91A21902001F072F90F
:105060000021102001F06EF90721112001F06AF9EA
:105070000021122001F066F90021132001F062F9ED
:10508000142002F04DF84FF4E661102001F05AF9B7
:1050900040F23711112001F055F9142002F040F8C8
:1050A0004FF4DC71122001F04DF9142002F038F8B1
:1050B0004FF47061132001F045F980212A2001F09E
:1050C00041F94821292001F03DF9142002F028F887
:1050D0003946012001F036F95146022001F032F93B
:1050E00041F23801032000E05CE001F02BF9314689
:1050F000082001F027F900210A2001F023F90021FE
:105100000C2001F01FF900210D2001F01BF93021C6
:105110000E2001F017F90021502001F013F9EF21C2
:10512000512001F00FF90021522001F00BF9214626
:10513000532001F007F92946602001F003F901210D
:10514000612001F0FFF800216A2001F0FBF8112135
:10515000902001F0F7F84FF4C061922001F0F2F8CE
:1051600040F20241932001F0EDF80221942001F079
:10517000E9F8142001F0D4FF0121072001F0E2F842
:10518000142001F0CDFF6121072001F0DBF840F28F
:105190007311072001F0D6F80021202001F0D2F889
:1051A0000021212001F0CEF8222100202DE2002153
:1051B000084601F0C7F80021084601F0C3F81420A2
:1051C00001F0AEFF0021084601F0BCF800210846BE
:1051D00001F0B8F80021084601F0B4F800210846B3
:1051E00001F0B0F80121A42001F0ACF8142001F086
:1051F00097FF4FF41C51602001F0A4F840F606011F
:10520000082001F09FF840F203794946302001F070
:1052100099F80121312001F095F80421322001F0A4
:1052200091F84FF48171332001F08CF846464146E5
:10523000342001F087F840F20311352001F082F8A4
:105240001F21362001F07EF84946372001F07AF818
:105250000121382001F076F80421392001F072F89C
:105260001521902001F06EF84FF48261102001F0BA
:1052700069F840F24721112001F064F84FF4DE7123
:10528000122001F05FF84FF46061132001F05AF82A
:10529000782001F045FF3946012001F053F82946F6
:1052A000022001F04FF841F23001032001F04AF8EA
:1052B00008210A2001F046F800210C2001F042F8F4
:1052C00020210E2001F03EF800210F2001F03AF8D5
:1052D0000021202001F036F80021212001F032F8D1
:1052E0003D212A2001F02EF8142001F019FF2D2174
:1052F000292001F027F80021502001F023F84DF279
:10530000EF01512001F01EF80021522001F01AF89F
:105310002146532001F016F80021612001F012F817
:1053200000216A2001F00EF83146922001F00AF8BF
:105330000521932001F006F8394637E401210020C9
:1053400001F000F84AF6A401032000F0FBFF002161
:105350000C2000F0F7FF40F60C010D2000F0F2FFEA
:105360004FF42C510E2000F0EDFFB0211E2000F074
:10537000E9FF42F63F31012000F0E4FF4FF4C06145
:10538000022000F0DFFF0021102000F0DBFF46F2DA
:105390007801112000F0D6FF0021052000F0D2FF97
:1053A0000021062000F0CEFF4EF61C71162000F002
:1053B000C9FF0321172000F0C5FF40F23321072069
:1053C00000F0C0FF00210B2000F0BCFF00210F20E7
:1053D00000F0B8FF0021412000F0B4FF002142207E
:1053E00000F0B0FF0021482000F0ACFF214649202A
:1053F00000F0A8FF00214A2000F0A4FF00214B206C
:1054000000F0A0FF4FF46F41442000F09BFF00210B
:10541000452000F097FF2146462000F093FF3146DB
:10542000302000F08FFF4FF401742146312000F04E
:1054300089FF2146322000F085FF40F202552946BF
:10544000332000F07FFF691D342000F07BFF2146F0
:10545000352000F077FF2146362000F073FF294603
:10546000372000F06FFF40F2023421463A2000F06E
:1054700069FF21463B2000F065FF0021232000F05A
:1054800061FF0021242000F05DFF4FF40041252042
:1054900000F058FF00214F2000F054FF00214E2063
:1054A000B3E00121002000F04DFF0A2001F038FE9A
:1054B00041F22861102000F045FF0E21122000F07B
:1054C00041FF40F63921132000F03CFF0A2001F093
:1054D00027FE4021112000F035FF5021152000F05B
:1054E00031FF0A2001F01CFE1E21122000F02AFFCD
:1054F0000A2001F015FE4FF4B151102000F022FFF8
:1055000042F63921132000F01DFF0A2001F008FEA9
:105510003946012000F016FF4146022000F012FF3C
:1055200041F23801032000F00DFF5946082000F039
:1055300009FF08210A2000F005FF0021302000F0BB
:1055400001FF40F20241312000F0FCFE4FF4837174
:10555000322000E001E100F0F5FE40F2035133207B
:1055600000F0F0FE4FF48271342000F0EBFE40F2C8
:105570000131352000F0E6FE3146362000F0E2FE33
:1055800040F20531372000F0DDFE4FF40271382083
:1055900000F0D8FE40F60B71392000F0D3FE022156
:1055A000412000F0CFFE4FF41C51602000F0CAFEF5
:1055B0000121612000F0C6FE4FF40471902000F03C
:1055C000C1FE4FF48571922000F0BCFE04219320AF
:1055D00000F0B8FE3946A02000F0B4FE01210720FB
:1055E00000F0B0FE2121072000F0ACFE23210720AF
:1055F00000F0A8FE3321072000F0A4FE40F2331192
:10560000072000F09FFE0021A02000F09BFE33E267
:105610003021152000F096FE10219A2000F092FE15
:105620002021112000F08EFE43F22841102000F0CE
:1056300089FE0221122000F085FE41F2380113207C
:1056400000F080FE282001F06BFD1221084600F0DA
:1056500079FE282001F064FD43F22041102000F083
:1056600071FE43F23801132000F06CFE462000E08A
:1056700078E001F055FD0021302000F063FE40F29B
:105680000241312000F05EFE40F20731322000F08E
:1056900059FE4FF44171332000F054FE04213420B0
:1056A00000F050FE40F20141352000F04BFE314643
:1056B000362000F047FE40F20531372000F042FE70
:1056C0004FF4C2642146382000F03CFE21463920C8
:1056D00000F038FE3946012000F034FE4146022039
:1056E00000F030FE41F23001032000F02BFE40F6C6
:1056F0000801082000F026FE08210A2000F022FE02
:105700004FF41C51602000F01DFE0121612000F0CB
:1057100019FE4FF49F71902000F014FE394692203C
:1057200000F010FE3946932000F00CFE4FF440517B
:10573000A02000F007FE1021A32000F003FE0121AD
:10574000072000F0FFFD2121072000F0FBFD2321B1
:10575000072000F0F7FD3321072000F0F3FD40F2B1
:105760003311EAE5E22000F0D7FD4C46C9F810708D
:10577000C9F814501D20FCF72BFA4FF480666661BF
:1057800026612561276165610220FCF721FA6661C7
:1057900026612561276165610420FCF719FA6661BD
:1057A00026612561642001F0D5FCE02000F0B4FD05
:1057B000276165610120FCF70BFA666126612561AE
:1057C0000A2001F0ADFCE02000F0A6FD2761656134
:1057D0000320FCF7FDF96661266125610C2001F0CC
:1057E0009FFC012000F098FD0A2001F099FCE620C2
:1057F00000F092FD276165612F20FCF7E9F96661F1
:105800002661256127616561FF20FCF7E1F966618A
:105810002661256127616561FF20FCF7D9F9666182
:1058200026612561B02000F077FD276165612020A9
:10583000FCF7CEF96661266125612761656100206C
:10584000FCF7C6F966612661256127616561032061
:10585000FCF7BEF96661266125612761656140F24A
:105860001F30FCF7B5F96661266125612761656126
:105870000120FCF7ADF9666126612561276165614C
:1058800040F2DF10FCF7A4F966612661256127610B
:1058900065610020FCF79CF9666126612561B420F2
:1058A00000F03AFD276165610420FCF791F966611B
:1058B000266125612761656140F21F40FCF788F988
:1058C000666126612561276165610020FCF780F92A
:1058D000666126612561276165612E20FCF778F9F4
:1058E000666126612561276165610020FCF770F91A
:1058F000666126612561276165610020FCF768F912
:10590000666126612561276165610020FCF760F909
:10591000666126612561276165610020FCF758F901
:10592000666126612561B62000F0F6FC276165619D
:105930000220FCF74DF966612661256127616561EA
:105940004FF40370FCF744F9666126612561276115
:1059500065610020FCF73CF96661266125612761DD
:1059600065611720FCF734F96661266125612761BE
:1059700065611520FCF72CF96661266125612761B8
:1059800065610020FCF724F96661266125612761C5
:1059900065610020FCF71CF9666126612561F02035
:1059A00000F0BAFC276165610320FCF711F966611C
:1059B00026612561292000F0AFFCD02000F0ACFC6E
:1059C000276165610020FCF703F9666126612561A6
:1059D000BE2000F0A1FC276165610520FCF7F8F806
:1059E00066612661256127616561FE20FCF7F0F89C
:1059F000666126612561276165610120FCF7E8F891
:105A0000666126612561276165610020FCF7E0F889
:105A1000666126612561276165610020FCF7D8F881
:105A2000666126612561276165610020FCF7D0F879
:105A3000666126612561B82000F06EFC2761656112
:105A40000320FCF7C5F86661266125612761656161
:105A50000120FCF7BDF8666126612561BA2000F0DF
:105A60005BFC276165610120FCF7B2F86661266185
:105A70002561642000F054F80020FCF757FA05492E
:105A80000120C1F8B0014FF6FF70FCF70DFABDE838
:105A9000F88F0000000022422DE9F047DFF8649003
:105AA0004FF08830C9F8000009F104052860154E50
:105AB00000200C363060144CA81520614700676147
:105AC0004FF40068C4F8148010488088A0F509419C
:105AD000893902D1022001F03DFBA0680949C0B21A
